:020000040800F2
:1000000000000A2021CF0008EDEF0008F1EF000802
:1000100071CF000871CF000871CF00080000000008
:1000200000000000000000000000000071CF000888
:10003000F5EF00080000000071CF0008F9EF00089C
:1000400071CF000871CF000871CF000871CF000890
:1000500071CF000871CF000871CF000849F0000887
:100060002DF0000871CF000841F0000871CF0008A2
:1000700071CF000871CF000871CF000871CF000860
:1000800071CF000871CF000871CF000871CF000850
:1000900071CF000871CF000871CF000871CF000840
:1000A00071CF000871CF000871CF0008FDEF000884
:1000B00071CF000809F0000821F0000871CF000896
:1000C00071CF000871CF000871CF000871CF000810
:1000D00071CF000871CF000871CF000871CF000800
:1000E00071CF000871CF000871CF000871CF0008F0
:1000F00071CF000871CF000871CF00080000000028
:1001000071CF000835F0000871CF000871CF0008EA
:1001100071CF000871CF000871CF000871CF0008BF
:1001200071CF000871CF000871CF000871CF0008AF
:1001300071CF000871CF000871CF000871CF00089F
:1001400071CF000871CF000871CF000815F00008CA
:1001500071CF000871CF000871CF000871CF00087F
:1001600071CF000871CF000871CF000871CF00086F
:1001700071CF000871CF000871CF000800000000A7
:1001800071CF000871CF000871CF000871CF00084F
:1001900071CF000871CF00080000000000000000CF
:1001A000000000000000000071CF000871CF0008BF
:1001B00071CF000871CF000871CF00080000000067
:1001C00010B5054C237833B9044B13B10448AFF391
:1001D00000800123237010BDD01E0020000000000D
:1001E0009849020808B5034B1BB103490348AFF314
:1001F000008008BD00000000D41E002098490208BD
:10020000034613F8012B002AFBD1181A0138704756
:1002100001F0FF01102A2BDB10F0070F08D010F8B7
:10022000013B013A8B422DD010F0070F42B3F6D1BB
:10023000F0B441EA012141EA014122F007047FF0D4
:1002400000070023F0E80256083C85EA010586EA2B
:10025000010685FA47F5A3FA87F586FA47F6A5FA67
:1002600087F68EB9EED1F0BC01F0FF0102F0070273
:1002700032B110F8013B013A83EA010313B1F8D11E
:100280000020704701387047002D06BF35460338FF
:10029000073815F0010F07D1013015F4807F02BF38
:1002A000013015F4C03F0130F0BC0138704700BF89
:1002B00081F0004102E000BF83F0004330B54FEA17
:1002C00041044FEA430594EA050F08BF90EA020F84
:1002D0001FBF54EA000C55EA020C7FEA645C7FEA17
:1002E000655C00F0E2804FEA5454D4EB5555B8BF3A
:1002F0006D420CDD2C4480EA020281EA030382EAAB
:10030000000083EA010180EA020281EA0303362D3C
:1003100088BF30BD11F0004F4FEA01314FF4801C0F
:100320004CEA113102D0404261EB410113F0004F21
:100330004FEA03334CEA133302D0524263EB4303D8
:1003400094EA050F00F0A780A4F10104D5F1200E76
:100350000DDB02FA0EFC22FA05F2801841F10001D1
:1003600003FA0EF2801843FA05F359410EE0A5F1A5
:1003700020050EF1200E012A03FA0EFC28BF4CF0D6
:10038000020C43FA05F3C01851EBE37101F000458C
:1003900007D54FF0000EDCF1000C7EEB00006EEB99
:1003A0000101B1F5801F1BD3B1F5001F0CD3490823
:1003B0005FEA30004FEA3C0C04F101044FEA44527A
:1003C00012F5800F80F09A80BCF1004F08BF5FEA01
:1003D000500C50F1000041EB045141EA050130BDE1
:1003E0005FEA4C0C404141EB0101013C28BFB1F5F3
:1003F000801FE9D291F0000F04BF01460020B1FA3E
:1004000081F308BF2033A3F10B03B3F120020CDA10
:100410000C3208DD02F1140CC2F10C0201FA0CF0EE
:1004200021FA02F10CE002F11402D8BFC2F1200C53
:1004300001FA02F120FA0CFCDCBF41EA0C01904009
:10044000E41AA2BF01EB0451294330BD6FEA040452
:100450001F3C1CDA0C340EDC04F11404C4F120023D
:1004600020FA04F001FA02F340EA030021FA04F34F
:1004700045EA030130BDC4F10C04C4F1200220FAA6
:1004800002F001FA04F340EA0300294630BD21FAE4
:1004900004F0294630BD94F0000F83F4801306BFAA
:1004A00081F480110134013D4EE77FEA645C18BF9E
:1004B0007FEA655C29D094EA050F08BF90EA020F35
:1004C00005D054EA000C04BF1946104630BD91EA2D
:1004D000030F1EBF0021002030BD5FEA545C05D130
:1004E0004000494128BF41F0004130BD14F580046F
:1004F0003CBF01F5801130BD01F0004545F0FE41E3
:1005000041F470014FF0000030BD7FEA645C1ABF17
:10051000194610467FEA655C1CBF0B46024650EA4E
:10052000013406BF52EA033591EA030F41F400217A
:1005300030BD00BF90F0000F04BF0021704730B500
:100540004FF4806404F132044FF000054FF00001D5
:1005500050E700BF90F0000F04BF0021704730B596
:100560004FF4806404F1320410F0004548BF40426B
:100570004FF000013EE700BF42004FEAE2014FEAC0
:1005800031014FEA02701FBF12F07F4393F07F4F9B
:1005900081F06051704732F07F4208BF704793F09E
:1005A0007F4F04BF41F40021704730B54FF46074B1
:1005B00001F0004521F000411CE700BF50EA0102B4
:1005C00008BF704730B54FF000050AE050EA01025D
:1005D00008BF704730B511F0004502D5404261EBCD
:1005E00041014FF4806404F132045FEA915C3FF40E
:1005F000D8AE4FF003025FEADC0C18BF03325FEAAB
:10060000DC0C18BF033202EBDC02C2F1200300FA5B
:1006100003FC20FA02F001FA03FE40EA0E0021FA80
:1006200002F11444BDE600BF70B54FF0FF0C4CF46E
:10063000E06C1CEA11541DBF1CEA135594EA0C0F20
:1006400095EA0C0F00F0DEF82C4481EA030621EA5B
:100650004C5123EA4C5350EA013518BF52EA033596
:1006600041F4801143F4801338D0A0FB02CE4FF048
:100670000005E1FB02E506F00042E0FB03E54FF078
:100680000006E1FB03569CF0000F18BF4EF0010E70
:10069000A4F1FF04B6F5007F64F5407404D25FEA6C
:1006A0004E0E6D4146EB060642EAC62141EA55511F
:1006B0004FEAC52040EA5E504FEACE2EB4F1FD0C61
:1006C00088BFBCF5E06F1ED8BEF1004F08BF5FEADF
:1006D000500E50F1000041EB045170BD06F0004691
:1006E00046EA010140EA020081EA0301B4EB5C043E
:1006F000C2BFD4EB0C0541EA045170BD41F4801136
:100700004FF0000E013C00F3AB8014F1360FDEBF5A
:10071000002001F0004170BDC4F10004203C35DA36
:100720000C341BDC04F11404C4F1200500FA05F3B9
:1007300020FA04F001FA05F240EA020001F000425A
:1007400021F0004110EBD37021FA04F642EB0601D0
:100750005EEA430E08BF20EAD37070BDC4F10C04FA
:10076000C4F1200500FA04F320FA05F001FA04F2BE
:1007700040EA020001F0004110EBD37041F10001AA
:100780005EEA430E08BF20EAD37070BDC4F12005B5
:1007900000FA05F24EEA020E20FA04F301FA05F21D
:1007A00043EA020321FA04F001F0004121FA04F2C5
:1007B00020EA020000EBD3705EEA430E08BF20EA95
:1007C000D37070BD94F0000F0FD101F000464000CF
:1007D00041EB010111F4801F08BF013CF7D041EA51
:1007E000060195F0000F18BF704703F00046520055
:1007F00043EB030313F4801F08BF013DF7D043EA26
:100800000603704794EA0C0F0CEA135518BF95EADB
:100810000C0F0CD050EA410618BF52EA4306D1D162
:1008200081EA030101F000414FF0000070BD50EA81
:10083000410606BF1046194652EA430619D094EA0B
:100840000C0F02D150EA013613D195EA0C0F05D1F5
:1008500052EA03361CBF104619460AD181EA030149
:1008600001F0004141F0FE4141F470014FF0000001
:1008700070BD41F0FE4141F4780170BD70B54FF09C
:10088000FF0C4CF4E06C1CEA11541DBF1CEA13551C
:1008900094EA0C0F95EA0C0F00F0A7F8A4EB0504FE
:1008A00081EA030E52EA03354FEA013100F08880F5
:1008B0004FEA03334FF0805545EA131343EA1263BE
:1008C0004FEA022245EA111545EA10654FEA002673
:1008D0000EF000419D4208BF964244F1FD0404F52C
:1008E000407402D25B084FEA3202B61A65EB030588
:1008F0005B084FEA32024FF480104FF4002CB6EB45
:10090000020E75EB030E22BFB61A754640EA0C00C4
:100910005B084FEA3202B6EB020E75EB030E22BF04
:10092000B61A754640EA5C005B084FEA3202B6EB45
:10093000020E75EB030E22BFB61A754640EA9C0004
:100940005B084FEA3202B6EB020E75EB030E22BFD4
:10095000B61A754640EADC0055EA060E18D04FEA92
:10096000051545EA16754FEA06164FEAC30343EA32
:1009700052734FEAC2025FEA1C1CC0D111F4801FFF
:100980000BD141EA00014FF000004FF0004CB6E7F8
:1009900011F4801F04BF01430020B4F1FD0C88BF97
:1009A000BCF5E06F3FF6AFAEB5EB030C04BFB6EBA2
:1009B000020C5FEA500C50F1000041EB045170BD95
:1009C0000EF0004E4EEA113114EB5C04C2BFD4EBC2
:1009D0000C0541EA045170BD41F480114FF0000E46
:1009E000013C90E645EA060E8DE60CEA135594EAC2
:1009F0000C0F08BF95EA0C0F3FF43BAF94EA0C0FC5
:100A00000AD150EA01347FF434AF95EA0C0F7FF439
:100A100025AF104619462CE795EA0C0F06D152EA8D
:100A200003353FF4FDAE1046194622E750EA410671
:100A300018BF52EA43067FF4C5AE50EA41047FF482
:100A40000DAF52EA43057FF4EBAE12E74FF0FF3CE7
:100A500006E000BF4FF0010C02E000BF4FF0010CB8
:100A60004DF804CD4FEA410C7FEA6C5C4FEA430C31
:100A700018BF7FEA6C5C1BD001B050EA410C0CBF80
:100A800052EA430C91EA030F02BF90EA020F0020E2
:100A9000704710F1000F91EA030F58BF994208BF49
:100AA00090422CBFD8176FEAE37040F00100704706
:100AB0004FEA410C7FEA6C5C02D150EA013C07D15D
:100AC0004FEA430C7FEA6C5CD6D152EA033CD3D0A8
:100AD0005DF8040B704700BF8446104662468C46A2
:100AE0001946634600E000BF01B5FFF7B7FF0028D5
:100AF00048BF10F1000F01BD4DF808EDFFF7F4FFFE
:100B00000CBF012000205DF808FB00BF4DF808ED88
:100B1000FFF7EAFF34BF012000205DF808FB00BFAB
:100B20004DF808EDFFF7E0FF94BF012000205DF8CD
:100B300008FB00BF4DF808EDFFF7CEFF94BF012082
:100B400000205DF808FB00BF4DF808EDFFF7C4FF7B
:100B500034BF012000205DF808FB00BF4FEA410CC4
:100B60007FEA6C5C02D150EA013C0AD14FEA430CA7
:100B70007FEA6C5C02D152EA033C02D14FF00000E4
:100B800070474FF0010070474FEA410212F5001222
:100B900015D211D56FF47873B3EB625212D94FEAC4
:100BA000C12343F0004343EA505311F0004F23FAAE
:100BB00002F018BF404270474FF00000704750EA03
:100BC000013005D111F0004008BF6FF000407047C0
:100BD0004FF00000704700BF4FEA4102B2F1E0431E
:100BE00024BFB3F5001CDCF1FE5C0DD901F0004C14
:100BF0004FEAC0024CEA5070B2F1004F40EB830064
:100C000008BF20F00100704711F0804F21D113F18F
:100C10003872BCBF01F00040704741F480114FEAC8
:100C20005252C2F11802C2F1200C10FA0CF320FA51
:100C300002F018BF40F001004FEAC1234FEAD3236E
:100C400003FA0CFC40EA0C0023FA02F34FEA4303D8
:100C5000CCE77FEA625307D150EA01331EBF4FF061
:100C6000FE4040F44000704701F0004040F0FE407C
:100C700040F40000704700BF53B94AB9002908BFCB
:100C800000281CBF4FF0FF314FF0FF3000F06EB96D
:100C9000ADF1080C6DE904CE00F006F8DDF804E0D3
:100CA000DDE9022304B070472DE9F047089D0446B2
:100CB0008C46002B40F083808A42174647D9B2FA0F
:100CC00082F242B1C2F1200024FA00F09140974034
:100CD00040EA010C94404FEA1748230CBCFBF8F69D
:100CE0001FFA87FE08FB16C143EA014306FB0EF11B
:100CF000994209D9FB1806F1FF3080F01981994219
:100D000040F21681023E3B445B1AA4B2B3FBF8F0FA
:100D100008FB103344EA034400FB0EFEA64509D944
:100D20003C1900F1FF3380F00581A64540F20281B5
:100D300002383C4440EA0640A4EB0E0400261DB1F4
:100D4000D4400023C5E900433146BDE8F08702B92D
:100D5000FFDEB2FA82F2002A50D1CB1B4FEA174EC7
:100D60001FFA87F80126B3FBFEFC210C0EFB1C3397
:100D700041EA034108FB0CF38B4207D979180CF1C7
:100D8000FF3002D28B4200F2E9808446C91AA3B236
:100D9000B1FBFEF00EFB101143EA014408FB00F822
:100DA000A04507D93C1900F1FF3302D2A04500F25B
:100DB000D9801846A4EB080440EA0C40BFE78B42F8
:100DC00009D9002D00F0B1800026C5E900013046A8
:100DD0003146BDE8F087B3FA83F6002E4AD18B4244
:100DE00002D3824200F2B880841A61EB0301012031
:100DF0008C46002DA8D0C5E9004CA5E7C2F1200320
:100E000020FA03F6974001FA02F04FEA174ED94054
:100E10003043030CB1FBFEF61FFA87F80EFB1611E8
:100E200043EA014306FB08F1994204FA02F409D9A6
:100E3000FB1806F1FF3C80F08D80994240F28A80D9
:100E4000023E3B445B1A81B2B3FBFEF00EFB103353
:100E500041EA034100FB08F38B4207D9791800F1FE
:100E6000FF3C73D28B4271D902383944CB1A40EA25
:100E7000064678E7C6F1200C03FA06F422FA0CF3D2
:100E80001C4320FA0CF701FA06F34FEA144E21FA3C
:100E90000CF11F433B0CB1FBFEF91FFA84F80EFB6B
:100EA000191143EA014109FB08FA8A4502FA06F2E0
:100EB00000FA06F308D9611809F1FF3048D28A45D3
:100EC00046D9A9F102092144A1EB0A01BFB2B1FB45
:100ED000FEF00EFB101147EA014700FB08F8B84589
:100EE00007D9E71900F1FF312ED2B8452CD90238C5
:100EF000274440EA0940A7EB0807A0FB02894F45B9
:100F0000C64649461AD317D05DB1B3EB0E0267EB64
:100F1000010707FA0CFCF2404CEA0202F740C5E96F
:100F2000002700263146BDE8F0872E4628460BE70D
:100F30000646E9E61846FDE64345E5D2B8EB020E63
:100F400069EB04010138DFE70846D2E760468DE728
:100F50008146B9E7664675E730464AE7ACF1020CD0
:100F6000394413E702383C4424E700BF704700BF10
:100F7000044B4B6000224FF001100860CA608B6088
:100F8000002070470000484190F82930012B12D012
:100F900010B590F82A30044623B1012384F8293093
:100FA000002010BD01211C3000F0ACFA0028F4D064
:100FB0004FF0FF3010BD0020704700BF90F82A307E
:100FC000012B12D010B590F82930044623B101232B
:100FD00084F82A30002010BD01211C3000F092FA64
:100FE0000028F4D04FF0FF3010BD0020704700BF44
:100FF00038B590F82810044621B1012384F8283030
:10100000002038BD00F11C05284600F07BFA50B9DD
:101010000121284600F03EFA28B92846012100F0B7
:10102000F9F90028E9D04FF0FF3038BD07EE901AEB
:10103000B7EE007AF4EEC77AF1EE10FA08B510D9DF
:10104000B1EE0C7AF4EEC77AF1EE10FA94BF0221F9
:1010500003211C3000F0DEF9003818BF01204042A7
:1010600008BD0121F5E700BF08B51C3000F040FACB
:10107000003818BF0120404208BD00BF30B52DED3B
:10108000048B00F11C0483B00D46204601A900F03A
:10109000A7FA00285BD1BDF9043008EE103A01A987
:1010A0002046B8EEC89A00F047FA00284FD19DF8C4
:1010B000043008EE903A01A92046F8EE689A00F054
:1010C00099FA002843D1BDF9043008EE103A01A97D
:1010D0002046B8EEC88A00F03BFAC0BB9DF8043049
:1010E000ADF8000008EE903A20466946F8EE688AAE
:1010F00000F0EAF958BB68EEC97ABDF90030E9EEB4
:10110000887A07EE103A78EEE98AB8EEC77A38EEB8
:10111000498AE7EE287A87EE887AB5EEC07AF1EE52
:1011200010FA0CD4DFED0B7AB4EEE77AF1EE10FA98
:1011300007DDC5ED007A03B0BDEC048B30BD9FED3B
:10114000067A85ED007A03B0BDEC048B30BD4FF01C
:10115000FF30F0E70000C8420000000030B52DED80
:10116000048B00F11C0483B00D46204601A900F059
:101170004BFA002845D1BDF9043008EE103A01A918
:101180002046B8EEC89A00F0EFF9D0BB9DF80430C5
:1011900008EE903A01A92046F8EE689A00F03EFA6F
:1011A00078BBBDF9043008EE103A01A92046B8EE2C
:1011B000C88A00F0F7F920BB9DF80430ADF80000B4
:1011C00008EE903A20466946F8EE688A00F086F903
:1011D000B8B968EEC97ABDF90030E9EE887A07EE51
:1011E000103A78EEE98AB8EEC77A38EE498AE7EE27
:1011F000287A87EE887A85ED007A03B0BDEC048BFF
:1012000030BD4FF0FF30F8E710B484683CB941F0CE
:1012100080014469007BA4465DF8044B604741F0BF
:101220004001F6E710B484683CB941F080010469DC
:10123000007BA4465DF8044B604741F04001F6E7AF
:1012400010B590F82830012B044603D0002084F814
:10125000280010BD90F8293090F82A101BB169B110
:10126000002384F829300029F0D0002104F11C006B
:1012700000F048F948B984F82A00E7E71C3000F08C
:1012800041F910B994F82A10EAE74FF0FF3010BD89
:1012900010B582B00C461C300DF1070100F0D4F8F7
:1012A000C0B99DF80730032B14D8DFE803F0060A15
:1012B0000F020A4B236002B010BD0023236002B06E
:1012C00010BD4FF07E53236002B010BD044B23606D
:1012D00002B010BD4FF0FF30EDE700BF0000484105
:1012E0000000E04010B5044690F8290030B194F8B1
:1012F0002A1021B1002384F82930184610BD04F1CA
:101300001C0000F0FFF80028F4D04FF0FF3010BDB3
:1013100010B5044690F82A0030B194F8291021B194
:10132000002384F82A30184610BD04F11C0000F098
:10133000E9F80028F4D04FF0FF3010BD10B582B0AE
:101340000C461C300DF1070100F07EF8C0B99DF885
:101350000730032B14D8DFE803F0060A0F020A4B0C
:10136000236002B010BD0023236002B010BD4FF017
:101370007E53236002B010BD044B236002B010BD49
:101380004FF0FF30EDE700BF000048410000E040B3
:1013900007EE901AB7EE007AF4EEC77AF1EE10FA83
:1013A00008B510D9B1EE0C7AF4EEC77AF1EE10FA66
:1013B00094BF022103211C3000F02CF8003818BF24
:1013C0000120404208BD0121F5E700BFD0B130B493
:1013D000D1E900348A688260C0E900340A7B027374
:1013E000D1E904258C6909490261094AC261C0E951
:1013F0000554C0E908100BB130BC18474FF0FF305E
:1014000030BC70474FF0FF30704700BF0912000832
:101410002512000870B582B004460D46D0E901607F
:1014200001AA01232021B04758B99DF8043026684D
:10143000A06865F301038DF8043001AA012320217F
:10144000B04702B070BD00BF30B583B00123D0E912
:1014500001400D4601AA2021A0479DF8043003F069
:101460000303032B13D8DFE803F0060A0E0203235D
:101470002B7003B030BD00232B7003B030BD0123AF
:101480002B7003B030BD02232B7003B030BD04239A
:101490002B70EEE770B582B004460D46D0E90160CE
:1014A00001AA01232021B04758B99DF804302668CD
:1014B000A06865F382038DF8043001AA012320217E
:1014C000B04702B070BD00BF10B4D0E901400A4679
:1014D000A44602235DF8044B2821604710B4D0E9EC
:1014E00001400A46A44602235DF8044B2A216047C6
:1014F00010B4D0E901400A46A44601235DF8044B2C
:101500000F21604770B582B004460D46D0E90160F6
:1015100001AA01232021B04758B99DF8043026685C
:10152000A06865F3C7138DF8043001AA01232021B8
:10153000B04702B070BD00BF38B50C460A46D0E9CE
:10154000015001233021A84723785B08237038BD60
:1015500038B50C460A46D0E9015001233121A8478D
:1015600023785B08237038BD70B582B004460D4601
:10157000D0E9016001230DF107023221B04778B9AB
:10158000012301AAD4E901603521B0479DF8042068
:101590009DF8073002F0030203EB0223DB102B70EF
:1015A00002B070BD70B582B004460D46D0E901604E
:1015B00001230DF107023321B04778B9012301AAB5
:1015C000D4E901603521B0479DF804209DF807302B
:1015D000C2F3810203EB0223DB102B7002B070BD5B
:1015E00010B4D0E901400A46A44602235DF8044B3A
:1015F0003621604710B4D0E901400A46A4460223D0
:101600005DF8044B3A21604710B4D0E901400A4626
:10161000A44602235DF8044B3C21604710B4D0E996
:1016200001400A46A44602235DF8044B3E21604770
:10163000084A8A6110B400234FF48034002032221B
:101640000C60C1E901005DF8044BCA600B614B619D
:10165000704700BF0000C8424FF07F530B6000206E
:10166000704700BF32230B60002070470020704796
:1016700007EE901AB2EE047AF4EEC77AF1EE10FAA1
:1016800008B508D9B3EE047AF4EEC77AF1EE10FA91
:101690000AD8012100E000211C3000F08DF900384B
:1016A00018BF0120404208BD9FED047AF4EEC77ACE
:1016B000F1EE10FA94BF02210321EDE70000484249
:1016C00038B500F11C0504460121284600F0AAF9AE
:1016D00090B90221284600F055F968B9032128463F
:1016E00000F06AF9014638B9284600F0C9F918B97E
:1016F000012384F8283038BD4FF0FF3038BD00BFDB
:1017000008B51C3000F0B2F9003818BF0120404283
:1017100008BD00BF10B582B00C461C300DF10701AA
:1017200000F064F9B8B99DF80730032B13D8DFE84F
:1017300003F0060A0E02094B236002B010BD084BED
:10174000236002B010BD074B236002B010BD064BF2
:10175000236002B010BD4FF0FF30EEE70000C8423A
:10176000000020410000A0410000484210B582B0B6
:101770000C461C30694600F06FF930B9009ABDF88C
:1017800004302260A38002B010BD4FF0FF30FAE7B2
:1017900010B582B00C461C30694600F05DF938BBCC
:1017A000BDF9003006EE903ABDF9023007EE103A6E
:1017B000BDF9043007EE903AF8EEE66AB8EEC77A63
:1017C000F8EEE77AB7EE086A66EE866A27EE067AE2
:1017D00067EE867AFDEEE66ABDEEC77AFDEEE77A41
:1017E000C4ED006A84ED017AC4ED027A02B010BD46
:1017F0004FF0FF30FAE700BF10B484683CB941F005
:1018000080014469007BA4465DF8044B604741F0C9
:101810004001F6E710B484683CB941F080010469E6
:10182000007BA4465DF8044B604741F04001F6E7B9
:1018300090F82930012B0AD010B5002104461C3045
:1018400000F0A0F828B9012384F8293010BD002049
:1018500070474FF0FF3010BD10B590F829300446A6
:101860001BB9002084F8280010BD02211C3000F0B4
:1018700089F810B984F82900F3E74FF0FF3010BD64
:1018800010B5044690F8290000B910BD022104F1FA
:101890001C0000F077F810B984F8290010BD4FF053
:1018A000FF3010BD00283AD030B50446D1E90030F1
:1018B0008A68A260C4E900300A7B2273D1E904255A
:1018C000886918492261184AE261C4E90550C4E9EF
:1018D000081483B003B39847F0B9A3686BB194F8C8
:1018E000282052B9012B04F11C0008D0012100F07E
:1018F000E1F8003818BF0120404203B030BD342465
:101900000DF1070262218DF8074000F033F800283E
:1019100018BF4FF0FF30F0E74FF0FF30EDE74FF02A
:10192000FF307047F91700081518000808B51C307B
:10193000012300F017F8003818BF0120404208BD0D
:1019400010B582B0144601230DF107021C308DF84A
:10195000074000F00FF8003818BF0120404202B0E5
:1019600010BD00BF10B4D0E90140A4465DF8044B9F
:10197000604700BF10B404688068A4465DF8044B5B
:10198000604700BF70B582B004460D46D0E90160E3
:1019900001AA01236021B04758B99DF80430266898
:1019A000A06865F301038DF8043001AA01236021CA
:1019B000B04702B070BD00BF70B582B004460D469E
:1019C000D0E9016001AA01236021B04758B99DF810
:1019D00004302668A06865F383038DF8043001AAFB
:1019E00001236021B04702B070BD00BF30B583B0A5
:1019F000012301AAD0E901500C466021A8479DF8B7
:101A00000430C3F38102022A134607D0032A05D00B
:101A1000012A03D00023237003B030BD237003B02C
:101A200030BD00BF70B582B004460D46D0E90160FC
:101A300001AA01236221B04758B99DF804302668F5
:101A4000A06865F304138DF8043001AA0123622114
:101A5000B04702B070BD00BF10B4D0E901400A46E3
:101A6000A44606235DF8044B6821604710B4D0E912
:101A700001400A46A44601235DF8044B4F2160470C
:101A800070B582B004460D46D0E9016001AA012379
:101A90006221B04758B99DF804302668A06865F304
:101AA00041038DF8043001AA01236221B04702B03E
:101AB00070BD00BF70B582B004460D46D0E901602C
:101AC00001AA01236221B04758B99DF80430266865
:101AD000A06865F345138DF8043001AA0123622143
:101AE000B04702B070BD00BF0022044B4A6040F214
:101AF00001120A608B60CB600020704700004843F1
:101B000010B44469007BA4465DF8044B604700BFF5
:101B100010B40469007BA4465DF8044B604700BF25
:101B200038B590F82830044623B1012384F82830D2
:101B3000002038BD00F11C052846112100F0ECFB07
:101B4000B8B91021284600F005FB014688B928469F
:101B500000F0C8FB68B90121284600F0E1FA40B95D
:101B60002846012100F0A4FB18B9032384F82B3088
:101B7000DBE74FF0FF3038BD08B51C3000F08EFBBE
:101B8000003818BF0120404208BD00BF38B590F8AA
:101B9000293007EE901AB7EE007A012B0446F4EED6
:101BA000C77A27D0F1EE10FA1DD9B2EE047AF4EE1E
:101BB000C77AF1EE10FA1BD9B3EE097AF4EEC77AC0
:101BC000F1EE10FA4FD99FED347AF4EEC77AF1EEC8
:101BD00010FA4CD99FED317AF4EEC77AF1EE10FA93
:101BE00049D8052300E0012384F82B30002038BDBC
:101BF0000223F9E7F1EE10FA24D9B2EE047AF4EEFA
:101C0000C77AF1EE10FA30D9B3EE097AF4EEC77A5A
:101C1000F1EE10FA2DD99FED207AF4EEC77AF1EEAD
:101C200010FA35D99FED1D7AF4EEC77AF1EE10FA6D
:101C300030D99FED1B7AF4EEC77AF1EE10FA94BF1B
:101C40000623072304F11C051946284600F082FAF2
:101C5000D8B904F12B01284600F0ACFA003818BFBF
:101C60000120404238BD0323BEE70223EAE70423F4
:101C7000BAE70323E6E79FED0A7AF4EEC77AF1EEBE
:101C800010FA94BF06230723AEE74FF0FF3038BDAC
:101C90000423D7E70523D5E7000048420000964219
:101CA0000000C84230B583B00D4600221C3001A9A7
:101CB000019200F0DFFA38B90446019800F01AFAF0
:101CC0002860204603B030BD4FF0FF34F9E700BF75
:101CD00030B583B00D4600221C3001A9ADF80420B8
:101CE00000F0D2FA40B90446BDF9040000F00AFA47
:101CF0002860204603B030BD4FF0FF34F9E700BF45
:101D000090F82930012B0BD010B5044690F82B1019
:101D10001C3000F01FFA28B9012384F8293010BDC7
:101D2000002070474FF0FF3010BD00BF90F82A3000
:101D3000012B0BD010B5044690F82B101C3000F08E
:101D400009FA28B9012384F82A3010BD0020704711
:101D50004FF0FF3010BD00BF70B590F82830012B58
:101D6000044603D0002084F8280070BD90F8293084
:101D700090F82A501BB1A5B1002384F82930002D1A
:101D8000F0D004F11C0504F12B01284600F012FAF2
:101D90000146B0B9284600F0DDF990B984F82A0070
:101DA000E0E700F11C06304604F12B0100F002FAD6
:101DB00038B92946304600F0CDF910B994F82A50C8
:101DC000DAE74FF0FF3070BD10B582B00C461C3022
:101DD0000DF1070100F0EEF900282AD19DF8073037
:101DE000072B26D8DFE803F0080C1115191D210474
:101DF000114B236002B010BD0023236002B010BD60
:101E00004FF07E53236002B010BD0C4B236002B034
:101E100010BD0B4B236002B010BD0A4B236002B013
:101E200010BD094B236002B010BD084B236002B007
:101E300010BD4FF0FF30DDE70000484300002041B7
:101E40000000C84100004842000096420000C8421D
:101E500010B582B00C461C300DF1070100F0AAF954
:101E600000282AD19DF80730072B26D8DFE803F099
:101E7000080C1115191D2104114B236002B010BD6F
:101E80000023236002B010BD4FF07E53236002B0E8
:101E900010BD0C4B236002B010BD0B4B236002B091
:101EA00010BD0A4B236002B010BD094B236002B085
:101EB00010BD084B236002B010BD4FF0FF30DDE7CE
:101EC00000004843000020410000C8410000484293
:101ED000000096420000C84238B5044690F8290038
:101EE00030B194F82A3023B1002384F82930184601
:101EF00038BD04F11C0504F12B01284600F05AF905
:101F0000014620B9284600F025F90028ECD04FF012
:101F1000FF3038BD38B5044690F82A0030B194F847
:101F2000293023B1002384F82A30184638BD04F143
:101F30001C0504F12B01284600F03CF9014620B9AC
:101F4000284600F007F90028ECD04FF0FF3038BDEC
:101F500038B590F82A3007EE901AB7EE007A012BC8
:101F60000446F4EEC77A27D0F1EE10FA1DD9B2EE8E
:101F7000047AF4EEC77AF1EE10FA1BD9B3EE097ABF
:101F8000F4EEC77AF1EE10FA4FD99FED347AF4EE01
:101F9000C77AF1EE10FA4CD99FED317AF4EEC77A98
:101FA000F1EE10FA49D8052300E0012384F82B3024
:101FB000002038BD0223F9E7F1EE10FA24D9B2EE81
:101FC000047AF4EEC77AF1EE10FA30D9B3EE097A5A
:101FD000F4EEC77AF1EE10FA2DD99FED207AF4EEE7
:101FE000C77AF1EE10FA35D99FED1D7AF4EEC77A73
:101FF000F1EE10FA30D99FED1B7AF4EEC77AF1EECC
:1020000010FA94BF0623072304F11C05194628463D
:1020100000F0A0F8D8B904F12B01284600F0CAF866
:10202000003818BF0120404238BD0323BEE7022319
:10203000EAE70423BAE70323E6E79FED0A7AF4EE22
:10204000C77AF1EE10FA94BF06230723AEE74FF0EC
:10205000FF3038BD0423D7E70523D5E70000484209
:10206000000096420000C842002834D030B5044633
:10207000D1E900308A68A260C4E900300A7B22738B
:10208000D1E90425886915492261154AE261C4E94C
:102090000550C4E9081483B0D3B19847C0B9A36808
:1020A000022B01D003B030BD94F82830002BF9D1B9
:1020B000012304F11C000DF1070210218DF80730F7
:1020C00000F010F8002818BF4FF0FF3003B030BD0B
:1020D0004FF0FF30E6E74FF0FF307047011B00087C
:1020E000111B000810B404688068A4465DF8044B16
:1020F000604700BF07EE900AFAEECA7A17EE900A20
:10210000704700BF07EE900A9FED047AF8EEE77A79
:10211000C7EE877A17EE900A704700BF0000C842EA
:1021200070B582B004460D46D0E9016001AA0123D2
:102130001021B04758B99DF804302668A06865F3AF
:1021400041038DF8043001AA01231021B04702B0E9
:1021500070BD00BF70B582B004460D46D0E9016085
:102160006A4601231021B04710BBD4E9016001AADF
:1021700001231121B047D8B99DF800302668A06826
:1021800065F306138DF800306A4601231021B0472D
:1021900070B99DF804302668A06823F00303C5F3E6
:1021A000C1051D4301AA8DF8045001231121B04738
:1021B00002B070BD70B582B006460C46D0E9015041
:1021C00001236A461021A84758BBD6E9015001AA4D
:1021D00001231121A84720BB01AA01231121D6E91F
:1021E0000150A8479DF804209DF8001002F001035B
:1021F000DB00C2F3400203EB0213C1F302121344EB
:10220000152B0CD8DFE803F00B33302D2A272421BF
:102210001E0B0B0B0B0B0B0B0B1B1815120F0023BC
:10222000237002B070BD15232370FAE714232370C6
:10223000F7E713232370F4E712232370F1E7112348
:102240002370EEE708232370EBE707232370E8E70A
:1022500006232370E5E705232370E2E704232370B8
:10226000DFE703232370DCE702232370D9E7012390
:102270002370D6E710B4D0E901400A46A4460323F0
:102280005DF8044B2821604710B4D0E901400A46AC
:10229000A44602235DF8044B2B21604710B4D0E91B
:1022A00001400A46A44601235DF8044B0F21604714
:1022B00070B582B004460D46D0E9016001AA012341
:1022C0001121B04758B99DF804302668A06865F31D
:1022D00004138DF8043001AA01231121B04702B084
:1022E00070BD00BF70B582B004460D46D0E90160F4
:1022F00001AA01231021B04758B99DF8043026687F
:10230000A06865F383038DF8043001AA012310212E
:10231000B04702B070BD00BF70B582B004460D4634
:10232000D0E9016001AA01230E21B04790B99DF8C0
:1023300004202668A0686B0003F002032D0943EA1D
:10234000C51502F07D031D4301AA8DF80450012339
:102350000E21B04702B070BD30B40022074B8A6135
:1023600040F201154FF4FA6400201022C1E9005434
:1023700030BCC1E902200B614B6170470020D045A1
:1023800010B44469007BA4465DF8044B604700BF6D
:1023900010B40469007BA4465DF8044B604700BF9D
:1023A000022908B506DD04290DDD0929B4BF032182
:1023B000012100E000211C3000F030FD003818BF82
:1023C0000120404208BD0221F5E700BF70B500F1D1
:1023D0001C0405468021204600F07AFE58BB0121EE
:1023E000204600F05BFE30BB0121204600F004FED9
:1023F000014600BB204601F03FF80146D8B904264B
:1024000085F82B60204601F0E5F8014698B9204692
:1024100000F004FD014670B985F82C60204601F0FB
:10242000EFF940B92046062100F06AFD18B90123F2
:1024300085F8283070BD4FF0FF3070BD7D2908B59C
:102440000ADDFA2911DDB1F5FA7F10DDB1F57A7FE9
:10245000D4BF0421062100E001211C3000F050FD12
:10246000003818BF0120404208BD0021F5E70221D5
:10247000F3E700BF08B51C3000F006FE003818BFB7
:102480000120404208BD00BF10B582B00C461C3090
:102490000DF1070100F0F8FC002830D19DF807305D
:1024A0000B2B2CD8DFE803F00A0D101316191C1F94
:1024B00022252806134B236002B010BD00232360A1
:1024C000FAE7114B2360F7E7104B2360F4E7104B5A
:1024D0002360F1E70F4B2360EEE70F4B2360EBE740
:1024E0000E4B2360E8E70E4B2360E5E70D4B2360BE
:1024F000E2E70D4B2360DFE70C4B2360DCE74FF096
:10250000FF30D9E70000D040000048410000D04132
:10251000000050420000D042000050430080D043F1
:10252000004050440060D044005050450058D04511
:1025300010B582B00C461C300DF1070100F088FC8C
:10254000B8B99DF80730032B13D8DFE803F0060A6B
:102550000E02094B236002B010BD084B236002B08D
:1025600010BD074B236002B010BD064B236002B0C4
:1025700010BD4FF0FF30EEE723DB793E23DB793DE2
:1025800023DBF93E23DBF93D10B582B00C461C304D
:102590000DF1070100F05CFCB8B99DF80730032B82
:1025A00013D8DFE803F0060A0E020823236002B006
:1025B00010BD0223236002B010BD1023236002B0BF
:1025C00010BD0423236002B010BD4FF0FF30EEE7D2
:1025D00010B582B00C461C30694600F031FD30B9B0
:1025E000009ABDF804302260A38002B010BD4FF005
:1025F000FF30FAE710B582B00C461C300DF1070130
:1026000000F0C2FC00282DD19DF807300A2B29D8F4
:10261000DFE803F00A0D101316191C1F222506000F
:10262000124B236002B010BD00232360FAE7104B69
:102630002360F7E70F4B2360F4E70F4B2360F1E7CC
:102640000E4B2360EEE70E4B2360EBE70D4B236050
:10265000E8E70D4B2360E5E70C4B2360E2E70C4B0A
:102660002360DFE74FF0FF30DCE700BF0058D045C4
:10267000000048410000D041000050420000D0421C
:10268000000050430080D043004050440060D044DC
:102690000050504510B582B00C461C300DF10701BA
:1026A00000F048FC48B99DF80730062B05D8DFE854
:1026B00003F0080C1004140418004FF0FF3002B0AF
:1026C00010BD0A4B236002B010BD094B236002B05D
:1026D00010BD084B236002B010BD074B236002B051
:1026E00010BD064B236002B010BD00BF00000C41BE
:1026F00000008C4000008C4100000C4200008C4225
:1027000010B582B00C461C300DF1070100F012FC30
:1027100048B99DF80730062B05D8DFE803F0080C10
:10272000100415041A004FF0FF3002B010BDFA2358
:10273000236002B010BD7D23236002B010BD4FF4B2
:10274000FA73236002B010BD4FF47A73236002B0B5
:1027500010BD4FF4FA63236002B010BD10B582B013
:102760000C461C30694600F061FC30B9009ABDF897
:1027700004302260A38002B010BD4FF0FF30FAE7B2
:1027800008B590F82A3007EE901AB2EE097A012BBC
:10279000F4EEC77A42D0F1EE10FA04D8012380F8A3
:1027A0002C30002008BDB3EE0A7AF4EEC77AF1EEC1
:1027B00010FA79D99FED4A7AF4EEC77AF1EE10FA61
:1027C00076D99FED487AF4EEC77AF1EE10FA73D914
:1027D0009FED457AF4EEC77AF1EE10FA70D99FEDCD
:1027E000437AF4EEC77AF1EE10FA6DD99FED407A94
:1027F000F4EEC77AF1EE10FA6AD99FED3E7AF4EE64
:10280000C77AF1EE10FA67D99FED3B7AF4EEC77AFA
:10281000F1EE10FA94BF09230A23C0E7F1EE10FA93
:1028200039D9B3EE0A7AF4EEC77AF1EE10FA3DD94F
:102830009FED2B7AF4EEC77AF1EE10FA3AD99FEDBC
:10284000297AF4EEC77AF1EE10FA37D99FED267A9D
:10285000F4EEC77AF1EE10FA34D99FED247AF4EE53
:10286000C77AF1EE10FA31D99FED217AF4EEC77AEA
:10287000F1EE10FA2ED99FED1F7AF4EEC77AF1EE41
:1028800010FA2BD99FED1C7AF4EEC77AF1EE10FA0C
:1028900094BF09230A2319461C3000F0B1FF003809
:1028A00018BF0120404208BD022378E70223F2E767
:1028B000032374E70323EEE7042370E70423EAE726
:1028C00005236CE70523E6E7062368E70623E2E72E
:1028D000072364E70723DEE7082360E70823DAE736
:1028E000000050420000D042000050430080D0431E
:1028F000004050440060D0440050504590F82930CA
:10290000012B0BD010B5044690F82B101C3000F0B2
:1029100061FE28B9012384F8293010BD00207047DA
:102920004FF0FF3010BD00BF90F82A30012B0BD0C4
:1029300010B5044690F82C101C3000F061FF28B947
:10294000012384F82A3010BD002070474FF0FF307B
:1029500010BD00BF38B590F82930044653B994F83B
:102960002A30D3B9002084F82B0084F82C0084F896
:10297000280038BD00F11C0504F12B01284600F0A9
:1029800083FA0146C8B9284600F024FEA8B994F895
:102990002A3084F82900002BE4D004F11C0504F14E
:1029A0002C01284600F0F0FA014630B9284600F024
:1029B00027FF10B984F82A00D4E74FF0FF3038BD64
:1029C00008B590F8293007EE901AB2EE097A012B7B
:1029D000F4EEC77A42D0F1EE10FA04D8012380F861
:1029E0002B30002008BDB3EE0A7AF4EEC77AF1EE80
:1029F00010FA79D99FED4A7AF4EEC77AF1EE10FA1F
:102A000076D99FED487AF4EEC77AF1EE10FA73D9D1
:102A10009FED457AF4EEC77AF1EE10FA70D99FED8A
:102A2000437AF4EEC77AF1EE10FA6DD99FED407A51
:102A3000F4EEC77AF1EE10FA6AD99FED3E7AF4EE21
:102A4000C77AF1EE10FA67D99FED3B7AF4EEC77AB8
:102A5000F1EE10FA94BF09230A23C0E7F1EE10FA51
:102A600039D9B3EE0A7AF4EEC77AF1EE10FA3DD90D
:102A70009FED2B7AF4EEC77AF1EE10FA3AD99FED7A
:102A8000297AF4EEC77AF1EE10FA37D99FED267A5B
:102A9000F4EEC77AF1EE10FA34D99FED247AF4EE11
:102AA000C77AF1EE10FA31D99FED217AF4EEC77AA8
:102AB000F1EE10FA2ED99FED1F7AF4EEC77AF1EEFF
:102AC00010FA2BD99FED1C7AF4EEC77AF1EE10FACA
:102AD00094BF09230A2319461C3000F07BFD0038FF
:102AE00018BF0120404208BD022378E70223F2E725
:102AF000032374E70323EEE7042370E70423EAE7E4
:102B000005236CE70523E6E7062368E70623E2E7EB
:102B1000072364E70723DEE7082360E70823DAE7F3
:102B2000000050420000D042000050430080D043DB
:102B3000004050440060D0440050504538B5044631
:102B400090F8290000B938BD04F11C0504F12B01EF
:102B5000284600F099F9014630B9284600F03AFDC0
:102B600010B984F8290038BD4FF0FF3038BD00BFE0
:102B700038B5044690F82A0000B938BD04F11C05A8
:102B800004F12C01284600F0FFF9014630B928462F
:102B900000F036FE10B984F82A0038BD4FF0FF303F
:102BA00038BD00BF30B500F11C0585B00C46284685
:102BB00002A900F045FA00283ED128460DF1070190
:102BC00000F046F9C0BB9DF80730032B34D8DFE88E
:102BD00003F02A2D30029FED1A6ABDF9083006EE87
:102BE000903ABDF90A3007EE103ABDF90C3007EE05
:102BF000903AF8EEE66AB8EEC77AF8EEE77A66EE53
:102C0000866A27EE067A67EE867AFDEEE66ABDEE04
:102C1000C77AFDEEE77AC4ED006A84ED017AC4ED6F
:102C2000027A05B030BD9FED076AD6E79FED066AD0
:102C3000D3E79FED066AD0E74FF0FF30F1E700BF22
:102C400023DB793E23DB793D23DBF93E23DBF93DB2
:102C500030B500F11C0585B00C46284602A900F0ED
:102C6000E5F978B928460DF1070100F063F948B994
:102C70009DF80730062B05D8DFE803F00830330451
:102C8000360439004FF0FF3005B030BD9FED196AB2
:102C9000BDF9083006EE903ABDF90A3007EE103A59
:102CA000BDF90C3007EE903AF8EEE66AB8EEC77A56
:102CB000F8EEE77A66EE866A27EE067A67EE867A9F
:102CC000FDEEE66ABDEEC77AFDEEE77AC4ED006A76
:102CD00084ED017AC4ED027A05B030BD9FED066A3D
:102CE000D6E79FED066AD3E79FED056AD0E79FED33
:102CF000056ACDE700000C4100008C4000008C41CB
:102D000000000C4200008C42002835D030B504464B
:102D1000D1E900308A68A260C4E900300A7B2273DE
:102D2000D1E90425886916492261164AE261C4E99D
:102D30000550C4E9081483B0DBB19847C8B9A3684B
:102D4000022B01D003B030BD94F82830002BF9D10C
:102D500004F11C0001230C240DF1070212218DF84F
:102D6000074000F053F8002818BF4FF0FF3003B0C1
:102D700030BD4FF0FF30E5E74FF0FF30704700BF48
:102D8000812300089123000808B51C30012300F0BE
:102D900035F8003818BF0120404208BD10B582B098
:102DA000144601230DF107021C308DF8074000F096
:102DB0002DF8003818BF0120404202B010BD00BFFE
:102DC000012908D808B51C3000F044F9003818BFB4
:102DD0000120404208BD4FF0FF30704700B583B07E
:102DE0006B4683E806001C30194600F005FA0038EF
:102DF00018BF0120404203B05DF804FB10B4D0E9D5
:102E00000140A4465DF8044B604700BF10B404685D
:102E10008068A4465DF8044B604700BF70B582B07F
:102E200004460D46D0E9016001AA01231021B047F4
:102E300058B99DF804302668A06865F383038DF8BF
:102E4000043001AA01231021B04702B070BD00BFB9
:102E500030B583B0012301AAD0E901500C461021FE
:102E6000A8479DF80430C3F38102022A134607D015
:102E7000032A05D0012A03D00023237003B030BDFC
:102E8000237003B030BD00BF30B583B00123D0E95B
:102E900001400D4601AA1021A0479DF804301B09EE
:102EA0000B2B0BD8DFE803F00A101316191C1F2296
:102EB0002528060D0A232B7003B030BD00232B708C
:102EC000FAE70B232B70F7E701232B70F4E70223BB
:102ED0002B70F1E703232B70EEE704232B70EBE755
:102EE00005232B70E8E706232B70E5E707232B70FB
:102EF000E2E708232B70DFE709232B70DCE700BF34
:102F000070B582B004460D46D0E9016001AA0123E4
:102F10001121B04758B99DF804302668A06865F3C0
:102F200043038DF8043001AA01231121B04702B0F8
:102F300070BD00BF30B583B00123D0E901400D461C
:102F400001AA1121A0479DF80430C3F34203013BBD
:102F5000052B04D8DFE803F00B0F0313030700234E
:102F60002B7003B030BD06232B7003B030BD01239E
:102F70002B7003B030BD02232B7003B030BD04238F
:102F80002B7003B030BD00BF30B583B00123D0E952
:102F900001400D4601AA1121A0479DF804301B09EC
:102FA0000A2B0BD8DFE803F00A101316191C1F2296
:102FB00025060D0009232B7003B030BD00232B70B4
:102FC000FAE70A232B70F7E701232B70F4E70223BB
:102FD0002B70F1E703232B70EEE704232B70EBE754
:102FE00005232B70E8E706232B70E5E707232B70FA
:102FF000E2E708232B70DFE770B582B004460D4688
:10300000D0E9016001AA01231221B04758B99DF807
:1030100004302668A06865F386138DF8043001AA91
:1030200001231221B04702B070BD00BF10B4D0E937
:1030300001400A46A44606235DF8044B222160475E
:1030400010B4D0E901400A46A44606235DF8044BBB
:103050002821604770B582B004460D46D0E9016072
:1030600001AA01230B21B04758B99DF80430266806
:10307000A06865F3C7138DF8043001AA01230B2162
:10308000B04702B070BD00BF10B4D0E901400A469D
:10309000A44601235DF8044B0F21604770B582B050
:1030A00004460D46D0E9016001AA01231221B04770
:1030B00058B99DF804302668A06865F382038DF83E
:1030C000043001AA01231221B04702B070BD00BF35
:1030D00070B582B004460D46D0E9016001AA012313
:1030E0001821B04700BB9DF804302668A068EA09A3
:1030F00062F341038DF8043001AA01231821B0477F
:1031000090B9D4E901606A4601236221B04758B9F9
:103110009DF800302668A06865F3C4038DF8003080
:103120006A4601236221B04702B070BD70B5012329
:1031300082B004460D46D0E90160194601AAB047A5
:103140000346002855D19DF804202668A068022374
:1031500063F3871201238DF80420194601AAB047B2
:103160000346002845D10123D4E901606A1D1121DD
:10317000B047034600283CD10123D4E90160AA1CD2
:103180000E21B0470346A0BB0123D4E90160EA1C2D
:103190000F21B047034660BB0123D4E901602A1D1B
:1031A0001021B047034620BB01231946D4E9016032
:1031B00001AAB0470346E0B99DF804102668A0684C
:1031C00063F3871101238DF8041001AA1946B04753
:1031D000034670B90123D4E901602A460E21B047A5
:1031E000034630B96A1C0123D4E901505F21A84786
:1031F0000346184602B070BDF0B5012385B0044601
:103200000D46D0E90160194602AAB04703460028DE
:1032100040F02F819DF808202668A068022363F300
:10322000871201238DF80820194602AAB0470346E9
:10323000002840F01E8101232668A0686A1D0D2128
:10324000B0470346002840F0148101232668A06897
:10325000AA1C0A21B0470346002840F00A81012336
:103260002668A068EA1C0B21B0470346002840F0FE
:10327000008101232668A0682A1D0C21B04703465F
:10328000002840F0F68001231946D4E9016002AA23
:10329000B0470346002840F0EC809DF808202668DF
:1032A000A06863F3871201238DF80820194602AA4B
:1032B000B0470346002840F0DC80AE78E8782979F2
:1032C0006A79C6F3401343EAD613C6F3C0073B43FB
:1032D000C6F300163343C0F300063343C0F3400681
:1032E0003343C0F380063343C0F3C0063343C0F317
:1032F00000163343C0F340163343C0F38016334304
:1033000043EAD013C1F300000343C1F34000034379
:10331000C1F380000343C1F3C0000343C1F30010B5
:103320000343C1F340100343C1F38010034343EA56
:10333000D113C2F300010B43C2F340010B43C2F3AC
:1033400080010B43C2F3C0010B43C2F300110B43D6
:10335000C2F340110B43C2F380110B436978266816
:10336000A06843EAD21363F34101697001232A463E
:103370000D21B047034600287BD10123EA182668B7
:10338000A0685E21B0470346002872D10123D4E92A
:10339000016001AA5821B0470346002869D102A95B
:1033A0002046FFF7C3FE0346002862D19DF808209F
:1033B0009DF809602878C2F34001C2F380130B43E3
:1033C000C2F380010B43C2F300010B43C2F340116F
:1033D0000B43C2F300110B43C2F3C0021343C6F305
:1033E00080021343C6F3C0021343C6F30012134313
:1033F000C6F340121343C6F38012134343EAD613B5
:103400006A789DF80410C0F3800543EAD0132B437B
:10341000C0F380152B43C0F340052B43C0F30005D8
:103420002B43C0F340152B43C0F300152B43C0F3CF
:10343000C0000343C2F300000343C2F38000034310
:10344000C2F3C0000343C2F300100343C2F34010B1
:103450000343C2F38010034343EAD21363F3C7115B
:103460008DF8041001232568A06801AA5821A847F7
:103470000346184605B0F0BD70B582B004460D464F
:10348000D0E9016001AA01230A21B04758B99DF88B
:1034900004302668A06865F302038DF8043001AAA1
:1034A00001230A21B04702B070BD00BF70B50123EF
:1034B00082B004460D46D0E90160194601AAB04722
:1034C0000346002837D19DF804202668A06802230F
:1034D00063F3871201238DF80420194601AAB0472F
:1034E000034640BB0123D4E901606A465F21B0472F
:1034F000034600BB9DF80020C2F3C10102290A4621
:103500001CD003291AD0012918D02870012319468C
:10351000D4E9015001AAA847034660B99DF80410F8
:103520002568A06863F3871101238DF8041001AAB0
:103530001946A8470346184602B070BD2A70E5E751
:1035400070B5012382B004460D46D0E901601946EA
:1035500001AAB0470346002837D19DF80420266809
:10356000A068022363F3871201238DF80420194613
:1035700001AAB047034640BB0123D4E901606A4673
:103580006021B047034600BB9DF80020C2F3011143
:1035900002290A461CD003291AD0012918D0287004
:1035A00001231946D4E9015001AAA847034660B98E
:1035B0009DF804102568A06863F3871101238DF836
:1035C000041001AA1946A8470346184602B070BD68
:1035D0002A70E5E7F0B5012385B004460D46D0E931
:1035E0000160194603AAB0470346002840F0BA809C
:1035F0009DF80C202768A0680226012366F3871235
:103600008DF80C20194603AAB8470346002840F05D
:10361000A980334603AAD4E901604621B047034696
:10362000002840F09F8001231946D4E9016002AAD6
:10363000B0470346002840F095809DF80820266892
:10364000A06863F3871201238DF80820194602AAA7
:10365000B0470346002840F085809DF80C109DF887
:103660000D20C1F34000C1F300030343C1F3800008
:103670000343C1F3C0000343C1F300100343C1F38C
:1036800040100343C1F38010034343EAD113C2F354
:1036900000010B43C2F340010B43C2F380010B4313
:1036A000C2F3C0010B43C2F300110B43C2F340113C
:1036B0000B43C2F380110B4343EAD213D80754D40F
:1036C0002F4601231946D4E9016002AAB0470346F8
:1036D000002847D19DF808202668A068022363F3DC
:1036E000871201238DF80820194602AAB047034625
:1036F000002837D10123D4E9016001AA0521B04790
:10370000034678BB01231946D4E9016002AAB047F9
:10371000034600283AD19DF808202668A06863F384
:103720008712012319468DF8082002AAB0479DF898
:103730000420D10603462DD4A0B90123D4E90150B9
:1037400001AA1021A847034660B99DF804302568F6
:10375000A06867F307138DF8043001AA0123102134
:10376000A8470346184605B0F0BD0DF107012046F5
:10377000FFF79CFE03460028F4D19DF807302F4642
:10378000032B9ED8DFE803F01D1921159DF80420B6
:10379000D206E7D502A92046FFF7D2FE034600284D
:1037A000E0D19DF80830032B27D8DFE803F0211C77
:1037B0001712042D38BF042783E7022D38BF0227D4
:1037C0007FE7012D38BF01277BE7032D38BF032793
:1037D00077E7042D38BF04252F46AEE7032D38BF09
:1037E00003252F46A9E7022D38BF02252F46A4E75F
:1037F000012D38BF01252F469FE72F469DE700BFCB
:10380000F0B5012385B004460D46D0E901601946A4
:1038100003AAB0470346002840F0BA809DF80C2068
:103820002768A0680226012366F387128DF80C2012
:10383000194603AAB8470346002840F0A98033463A
:1038400003AAD4E901604621B0470346002840F0AE
:103850009F8001231946D4E9016002AAB0470346BC
:10386000002840F095809DF808202668A06863F342
:10387000871201238DF80820194602AAB047034693
:10388000002840F085809DF80C109DF80D20C1F3B4
:103890004000C1F300030343C1F380000343C1F3BD
:1038A000C0000343C1F300100343C1F340100343BE
:1038B000C1F38010034343EAD113C2F300010B4369
:1038C000C2F340010B43C2F380010B43C2F3C001BA
:1038D0000B43C2F300110B43C2F340110B43C2F37D
:1038E00080110B4343EAD213D80754D42F46012347
:1038F0001946D4E9016002AAB0470346002847D11F
:103900009DF808202668A068022363F3871201232C
:103910008DF80820194602AAB0470346002837D17F
:103920000123D4E9016001AA0521B047034678BB11
:1039300001231946D4E9016002AAB04703460028D2
:103940003AD19DF808202668A06863F38712012306
:1039500019468DF8082002AAB0479DF80420D10628
:1039600003462DD4A0B90123D4E9015001AA1121A5
:10397000A847034660B99DF804302568A06867F33E
:1039800007138DF8043001AA01231121A84703462B
:10399000184605B0F0BD0DF107012046FFF786FD82
:1039A00003460028F4D19DF807302F46032B9ED8FC
:1039B000DFE803F01D1921159DF80420D206E7D594
:1039C00002A92046FFF7BCFD03460028E0D19DF880
:1039D0000830032B27D8DFE803F0211C1712042D31
:1039E00038BF042783E7022D38BF02277FE7012D68
:1039F00038BF01277BE7032D38BF032777E7042D66
:103A000038BF04252F46AEE7032D38BF03252F46C8
:103A1000A9E7022D38BF02252F46A4E7012D38BFA4
:103A200001252F469FE72F469DE700BF30B58BB09D
:103A3000D0B92A4BDA6C42F00202DA64DB6C03F094
:103A400002030093009B264B264A53F82030049330
:103A500052F820000023012204A9CDE90523079391
:103A600001F06AFB0BB030BD01280AD11B4BDA6CA8
:103A700042F02002DA64DB6C03F020030193019B27
:103A8000E1E70228DFD1154C164DA36D43F08053BA
:103A9000A365A36D03F080530293029B02F05EFEC8
:103AA000E36CA86843F04003E364E36C03F0400375
:103AB00003934FF480620123CDE9042304A900237A
:103AC0000022CDE90623039C01F036FBA868012201
:103AD0004FF4806101F0FCFC0BB030BD00100240DF
:103AE000B0490208FC000020022808D0074A084B11
:103AF00032F8201053F82000012201F0E9BC044BF9
:103B0000002298684FF4806101F0E2BCB0490208DD
:103B1000FC000020022808D0074A084B32F8201089
:103B200053F82000002201F0D3BC044B0122986816
:103B30004FF4806101F0CCBCB0490208FC000020C9
:103B400070B5002388B0CDE90233CDE90433244CAD
:103B50000693A36D43F08053A365A36D03F08053D8
:103B600006460093009B0D4602F0F8FD46B9E36C53
:103B700043F04003E364E36C03F040030193019BD3
:103B80001DB1012D12D008B070BD164800EB86069D
:103B900000220223F06802A902240025CDE9024593
:103BA000CDE9042301F0C8FA08B070BD0D480E4DF0
:103BB00000EB86060223F06802A900220224CDE968
:103BC0000423CDE9024501F0B7FA00220F210720B6
:103BD00001F052FA072001F087FA08B070BD00BF6B
:103BE00000100240FC00002000002110094A0A4891
:103BF00008B5936D23F400139365C02101F0ACFB6D
:103C0000064801F079FD002814BF6FF0070000207E
:103C100008BD00BF0010024000040048EC35002041
:103C200030B585B00D464FF47A74CDE90134C1B298
:103C3000009201232A46054801F078FD002814BFB0
:103C40006FF00700002005B030BD00BFEC3500204C
:103C500030B585B00D464FF47A74CDE90134014694
:103C6000009201232A46054801F08EFE002814BF69
:103C70006FF00700002005B030BD00BFEC3500201C
:103C8000094A0A4808B5136E23F4805313664FF4AB
:103C9000604101F061FB064804F0F6FF002814BF04
:103CA0006FF00700002008BD00100240001000481F
:103CB0000037002010B50C46224601464FF47A73B7
:103CC000044804F0F7FF00280CBF20466FF0050001
:103CD00010BD00BF0037002010B50C46224601463B
:103CE0004FF47A73044805F02FFB00280CBF2046E0
:103CF0006FF0050010BD00BF00370020094A0A48D8
:103D000008B5936D23F400439365282101F024FB4B
:103D1000064804F0B9FF002814BF6FF00700002028
:103D200008BD00BF00100240000400489C3600207F
:103D300010B50C46224601464FF47A73044804F04D
:103D4000B9FF00280CBF20466FF0050010BD00BF72
:103D50009C36002001F064B90F4A38B54FF48271E7
:103D600002604FF4E0624FF4007518244160C260B5
:103D700007210022C0E90654C0E90422C0E9082254
:103D8000C0E90C22C1628260826204F0FFFE00384A
:103D900018BF012038BD00BF0030014070B51A4C7B
:103DA0001A4B236088B0204605F0F8FC10B10020C3
:103DB00008B070BD164B17481A6E42F480521A664E
:103DC0001A6E02F480520092009ADA6C42F01002ED
:103DD000DA64DB6C03F0100301934FF460420223BA
:103DE000CDE9022305250022032302A9CDE90423FE
:103DF000019E069501F0A0F92046FFF7ADFF0028CF
:103E0000D5D06FF00700D3E7003700200030014025
:103E1000001002400010004838B5154B03604FF405
:103E200082714FF400424FF4E06304464FF4007592
:103E30004160826038210722C3600023C0E9065137
:103E4000C0E90433C0E90833C0E90C33C2628362BD
:103E500004F09CFE23681A6842F480421A601A68D3
:103E6000003842F0400218BF01201A6038BD00BF80
:103E7000003C004070B51A4C1A4B236088B02046B5
:103E800005F08CFC10B1002008B070BD164B17482F
:103E90009A6D42F400429A659A6D02F400420092D3
:103EA000009ADA6C42F00202DA64DB6C03F002037F
:103EB000019328220223CDE90223062500220323B1
:103EC00002A9CDE90423019E069501F035F92046AB
:103ED000FFF7A2FF0028D6D06FF00700D4E700BF9D
:103EE0009C360020003C00400010024000040048C6
:103EF000114B124A70B5002603600123C0E902632A
:103F00004260C0E90466C0E906660662044601F044
:103F10009DFB31460546204601F06CFE0543EDB29F
:103F2000AD1B2046314618BF012501F08FFEB0427F
:103F30000CBF2846012070BD00540040FFEAC000BD
:103F400070B51C4C1C4B236088B0204601F04EFE1F
:103F500010B1002008B070BD184D1948EB6C43F04B
:103F60000203EB64EB6C03F002030093C022122304
:103F70000421CDE902230691012202A90323CDE900
:103F80000423009E01F0D8F8AB6D43F40013AB6539
:103F9000AB6D03F4001301932046019BFFF7A8FFCC
:103FA000014620B9204601F025FE0028D1D06FF04F
:103FB0000700CFE7EC35002000540040001002401D
:103FC000000400482DE9F0470C468CB00546002857
:103FD00078D0012871D1A24BA24E05930022BB23B9
:103FE00006F12C070DF1140A07928DF820309E4A35
:103FF0009E4B06920A939E4A9E4B09923846514622
:104000000B93FEF731F8002840F0D9800DF1030141
:104010003846FDF7B1FD002840F0D1809DF803300F
:10402000B32B40F0CC8001A93846FDF75DFD9DF82B
:1040300005109DF806009DF80420DFF85882DFF88F
:1040400044C2C8F804704B0043EA8003134314F0E1
:104050000109F365C6F864C002D0012A00F0D480DB
:10406000A30740F18F8038466346012900F0A18004
:10407000DB6851469847002840F08F809DF8147007
:104080009DF81630A7F10107012BB7FA87F79DF8C5
:1040900015304FEA571708BF47F00407012B5CD0D3
:1040A000B9F1000F5ED1A10700F18E80630700F126
:1040B0009B8000200CB0BDE8F0876FF001000CB0D1
:1040C000BDE8F087664B674E0593BF22674B8DF8BE
:1040D00020200DF1140A644A079006920A93644A5C
:1040E000644B0992304651460B93FDF76FF9002857
:1040F00065D10DF103013046FCF7B6FF00285ED113
:104100009DF80330BC2B5AD101A93046FCF730FF93
:104110009DF806709DF805009DF80410DFF8748185
:10412000554AC8F80060BB0043EA40030B4314F053
:104130000109B365326601D0012975D0600724D525
:104140003046012F23D113684C4A32679847002824
:1041500035D1326ED8F8000019E047F00207B9F106
:10416000000FA0D0F8079ED505EB450306EB8303AF
:1041700058F825009B6E1B689847002893D06FF075
:1041800004009CE73E483F4B72E736483A4AD36802
:104190005146984700283FF471AF6FF006008EE754
:1041A000A2070CD59DF80530012B08D1736ED8F805
:1041B0000400354A1B68B2679847002842D04FF088
:1041C000FF300CB0BDE8F087BA077FF56FAF05EBA5
:1041D000450306EB830358F82500DB6E1B68984700
:1041E00000283FF463AFCAE77C077FF562AF05EBB9
:1041F000450306EB830658F82500336F1B68984784
:1042000000283FF456AFBAE7204ADCF80030726766
:10421000384698470028C3D1A10713D59DF805104B
:10422000736ED8F8040020E71368194AB266304666
:10423000984758B963078CD59DF80670326ED8F848
:1042400000007EE7736ED8F8040011E76707B6D563
:104250009DF80630012BB2D1326ED8F8000072E71B
:10426000413F0008EC1E0020ED3B0008513C0008D7
:10427000213C0008553D00082800002014000020C3
:10428000181F002094000020800000206C000020F7
:10429000000000206437002001280ED808B5084B24
:1042A000084A03EB800352F820001B6E5B689847B6
:1042B000002818BF6FF0040008BD6FF001007047C0
:1042C000EC1E00206437002001281FD8114A034645
:1042D00002EB800010B5806D01EA0004814312D129
:1042E0000D490E4851F8241050F8230003EB430306
:1042F0000B4402EB83039B6E1B689847002818BF92
:104300006FF0040010BD6FF0010010BD6FF00100F0
:10431000704700BFEC1E0020C4490208643700202B
:1043200001281FD8114A034602EB800010B5806DAA
:1043300001EA0004814312D10D490E4851F82410BE
:1043400050F8230003EB43030B4402EB83039B6E03
:104350005B689847002818BF6FF0040010BD6FF02D
:10436000010010BD6FF00100704700BFEC1E00207F
:10437000C449020864370020012820D838B5114C00
:10438000034604EB8000806D01EA0005814313D1F0
:104390000D490E4851F8251050F8230003EB430354
:1043A0000B4404EB830311469B6EDB68984700289F
:1043B00018BF6FF0040038BD6FF0010038BD6FF01A
:1043C00001007047EC1E0020C44902086437002039
:1043D000012838B503461DD8104C0846114604EB99
:1043E0008302926D00EA020530EA020212D10C4A01
:1043F0000C4852F8252050F8230003EB43031344E4
:1044000004EB83039B6E1B699847002818BF6FF06D
:10441000040038BD6FF0010038BD00BFEC1E002065
:10442000C44902086437002030B583B015460C46F5
:1044300000224FF400414FF090408DF807401C4699
:1044400001F046F801210DF10700FFF771FC21464C
:104450000128284614BF6FF005050025FFF768FC0A
:104460000122A0424FF400414FF0904018BF6FF07E
:10447000050501F02DF8284603B030BD08B5FFF75B
:104480003DFC002818BF6FF0050008BD144B70B547
:10449000DA6C42F00102DA64DB6C88B003F00103ED
:1044A00001930022002302A94FF4004401254FF09C
:1044B0009040CDE90423CDE90245019E00F03CFE89
:1044C00001224FF400414FF0904001F001F8FFF756
:1044D000D1FC002818BF6FF0050008B070BD00BF08
:1044E0000010024030B583B015460C46002211483A
:1044F0008DF807404FF480511C4600F0E9FF012180
:104500000DF10700FFF7D6FB21460128284614BF0E
:104510006FF005050025FFF7CDFB0122A0424FF407
:104520008051044818BF6FF0050500F0D1FF284600
:1045300003B030BD0010004830B583B0154661F0BF
:104540007F04002211488DF807404FF480511C462B
:1045500000F0BEFF01210DF10700FFF7ABFB214684
:104560000128284614BF6FF005050025FFF7B4FBAE
:104570000122A0424FF48051044818BF6FF0050596
:1045800000F0A6FF284603B030BD00BF0010004871
:1045900008B5FFF775FB002818BF6FF0050008BDD0
:1045A000134B1448DA6C70B542F01002DA64DB6C1D
:1045B00088B003F0100301930022002302A94FF4F6
:1045C00080540125CDE90423CDE90245019E00F088
:1045D000B3FD01224FF48051064800F079FFFFF748
:1045E000DDFB002818BF6FF0050008B070BD00BFEC
:1045F0000010024000100048F8B53D4C0F4615462B
:104600004FF4004100224FF090401E4667F07F07B4
:1046100000F05EFF2168FFB288688307FCD50F7346
:10462000886810F4C05FFBD188680006FCD40B6872
:1046300023F040030B600B68012E23F480430B60D2
:104640003BD972B62068B31E02689BB242F04002AA
:10465000013302602B442A468168C907FCD5017BDF
:1046600002F8011B9A422068F6D1013EB6B2BFF3B0
:104670004F8FBFF34F8F2268136823F040031360FE
:1046800062B622689368DF07FCD5137BAB552268BE
:1046900093681806FCD401224FF400414FF090407B
:1046A00000F016FF23681A6842F480421A601A6804
:1046B00042F040021A600020F8BD72B6226813680A
:1046C00043F040031360BFF34F8FBFF34F8F226857
:1046D000136823F04003136062B622689368D90719
:1046E000FCD5137B2B70226893681B06FCD4D2E7A1
:1046F0009C3600202DE9F0430F4693B00446002875
:104700007CD0012875D1A64DA64B04930022A64B60
:104710008DF81C2005F12C06A44A069005920993F9
:10472000A34AA44B0892304604A90A93FEF7ECFA78
:10473000002840F003810DF10F013046FDF79AFE8D
:10474000002840F0FB809DF80F306C2B40F0F68085
:104750000BA930460191FDF7FFFD9DF82C009DF857
:104760002E209DF82DC0DFF878820199C8F80460EA
:10477000430043EA820343EA0C038F4A2B6617F097
:10478000020FAA6602D0012800F0DD8017F00109AF
:1047900000F0D1803046BCF1010F00F0EC80D3680E
:1047A0009847002840F0F9809DF82C309DF82DC0E6
:1047B0009DF82E20012B03BF062302260720042389
:1047C0000FBF0321002605200121BCF1010F04BF0A
:1047D00003460E46012A08BF1E46B9F1000F6ED1EE
:1047E000B9077CD47B0700F18980002013B0BDE8B5
:1047F000F0836FF0010013B0BDE8F0836F4B684D9C
:10480000049302226E4B06926E4A8DF81C000592AC
:1048100009936D4A674B0892284604A90A93FDF74D
:1048200041F8002840F08A800DF10F012846FCF77E
:1048300067FF002840F082809DF80F30402B7DD12B
:104840000BA928460191FCF7F3FE9DF82E209DF858
:104850002C609DF82D00DFF888810199C8F8005080
:10486000930043EA4603034317F0040F5748EB65F0
:10487000686653D14A48554BDB689847002840F09A
:104880008C809DF82C309DF82DC09DF82E20012B9A
:1048900001BF06230226072003211FBF0520042392
:1048A00001210026BCF1010F04BF03460E4607F0AC
:1048B0000109012A08BF1E46B9F1000F90D0F00788
:1048C0008ED504EB440305EB830358F82400DB6E1C
:1048D0001B689847002883D06FF004008BE7B2076D
:1048E00080D504EB440305EB830358F824001B6FC9
:1048F0001B68984700283FF475AFEDE776077FF512
:1049000074AF04EB440305EB830558F824006B6F88
:104910001B68984700283FF468AFDDE7012AA9D15A
:1049200003682B4A6A672846984738B96B6ED8F8EF
:1049300000000199A0E727481F4A30E74FF0FF30F9
:1049400013B0BDE8F0831368234AEA6730469847FE
:10495000019930B917F0010919D1AA6ED8F80400ED
:104960001DE717F00109E9D09DF82D30012BE5D1A5
:10497000AA6ED8F804001368184A0191AA679847EC
:104980000028DBD1AA6ED8F80400019907E79DF84A
:104990002DC0AA6ED8F80400FDE66FF006002AE7E5
:1049A0006C1F0020A145000839450008914500080A
:1049B000E5440008553D0008EC0000208D44000847
:1049C000F94500087D440008294400085C000020E7
:1049D00038000020981F0020C8000020A4000020FC
:1049E0006C37002001280ED808B5084B084A03EBA5
:1049F000800352F820005B6E5B689847002818BF60
:104A00006FF0040008BD6FF0010070476C1F0020BC
:104A10006C37002001281FD8114A034602EB8000A2
:104A200010B5C06D01EA0004814312D10D490E4852
:104A300051F8241050F8230003EB43030B4402EB1E
:104A40008303DB6E1B689847002818BF6FF00400D3
:104A500010BD6FF0010010BD6FF00100704700BF86
:104A60006C1F0020D84902086C37002001281FD88D
:104A7000114A034602EB800010B5C06D01EA000444
:104A8000814312D10D490E4851F8241050F82300EB
:104A900003EB43030B4402EB8303DB6E5B68984735
:104AA000002818BF6FF0040010BD6FF0010010BDAA
:104AB0006FF00100704700BF6C1F0020D84902084A
:104AC0006C370020012838B503461DD8104C084625
:104AD000114604EB8302D26D00EA020530EA0202BD
:104AE00012D10C4A0C4852F8252050F8230003EB51
:104AF0004303134404EB8303DB6EDB699847002810
:104B000018BF6FF0040038BD6FF0010038BD00BF62
:104B10006C1F0020D84902086C370020012838B5E6
:104B200003461DD8104C0846114604EB8302D26D93
:104B300000EA020530EA020212D10C4A0C4852F88F
:104B4000252050F8230003EB4303134404EB8303B5
:104B5000DB6EDB689847002818BF6FF0040038BD93
:104B60006FF0010038BD00BF6C1F0020D84902085B
:104B70006C370020012838B503461DD8104C084674
:104B8000114604EB8302D26D00EA020530EA02020C
:104B900012D10C4A0C4852F8252050F8230003EBA0
:104BA0004303134404EB8303DB6E5B6998470028DF
:104BB00018BF6FF0040038BD6FF0010038BD00BFB2
:104BC0006C1F0020D84902086C370020012820D82B
:104BD00038B5114C034604EB8000C06D01EA0005B6
:104BE000814313D10D490E4851F8251050F8230088
:104BF00003EB43030B4404EB83031146DB6E1B6999
:104C00009847002818BF6FF0040038BD6FF001000E
:104C100038BD6FF0010070476C1F0020D8490208B2
:104C20006C370020012838B503461DD8104C0846C3
:104C3000114604EB8302D26D00EA020530EA02025B
:104C400012D10C4A0C4852F8252050F8230003EBEF
:104C50004303134404EB8303DB6E9B6998470028EE
:104C600018BF6FF0040038BD6FF0010038BD00BF01
:104C70006C1F0020D84902086C37002008B558B1D5
:104C8000012806D1094B5868FEF77EF850B900207C
:104C900008BD6FF0010008BD044B1868FCF746FE24
:104CA0000028F4D06FF0040008BD00BF6C3700206E
:104CB00008B558B1012806D1094B5868FEF76EF8BF
:104CC00050B9002008BD6FF0010008BD044B186802
:104CD000FCF736FE0028F4D06FF0040008BD00BFDA
:104CE0006C370020012809D108B5064B5868FEF73B
:104CF00067F8002818BF6FF0040008BD6FF00100CE
:104D0000704700BF6C37002000B583B06B460128A8
:104D100083E806000CD1084893E806004068FEF7D7
:104D20005DF8002818BF6FF0040003B05DF804FBC5
:104D30006FF00100F9E700BF6C370020234B2448D7
:104D4000DA6C70B542F01002DA64DB6C88B003F004
:104D500010030193002200233024012502A9CDE98C
:104D60000423CDE90245019E00F0E6F9184801222E
:104D7000102100F0ADFB16480022202100F0A8FB16
:104D8000144B154A1A604FF48041D9600222002466
:104D900012485A6101254FF48051C3E901441C6156
:104DA0009D6100F08FFB0E4B30B91D701B78012BFD
:104DB00006D0022008B070BD1C701B78012BF8D102
:104DC000044803F0FBFD08B070BD00BF00100240B6
:104DD00000100048743700200024065000040048EA
:104DE000F01F002010B50C4613460146224603482A
:104DF00002F0F6FF003818BF012010BD7437002004
:104E000010B50C46134601462246034803F066F8E7
:104E1000003818BF012010BD74370020344B3548CE
:104E2000DA6C2DE9F04142F00202DA64DA6C324EBB
:104E30008AB002F002020092009ADA6C42F0080294
:104E4000DA64DA6C02F008020192019ADA6C42F03C
:104E50000402DA64DA6C02F004020292029ADA6C5A
:104E600042F48002DA64DB6C03F48003002403253F
:104E7000039304A94FF4407202230827DDF80CC005
:104E80000897CDE904234FF00C08CDE9064500F062
:104E900053F904A930464FF4F8520223CDE9042314
:104EA000CDE90645CDF8208000F046F904A904229A
:104EB00002231248CDF82080CDE90423CDE9064530
:104EC00000F03AF9022304A93046C022CDE90423B8
:104ED000CDE90645089700F02FF900221146312050
:104EE00000F0CAF8312000F0FFF80AB0BDE8F08108
:104EF000001002400004004800080048000C004870
:104F000008B5034803F0BEFD043818BF012008BDF2
:104F1000743700200146014803F096BC7437002026
:104F2000012804D004480022202100F0D1BA024612
:104F30002021014800F0CCBA0010004808B509F063
:104F400033FC08BD08B509F035FC08BD1149124B0A
:104F5000D1F8882042F4700210B4C1F888201A6891
:104F6000002042F001021A6098601A6822F0A852EC
:104F700022F410224FF480541A60DC601A684FF05B
:104F8000006422F480221A6098618C605DF8044B02
:104F9000704700BF00ED00E000100240704700BF06
:104FA00070B50F4E33680BB9012070BD0D494FF439
:104FB0007A720546B2FBF3F30868B0FBF3F000F039
:104FC000A1F804460028EFD10F2DEDD8024629465E
:104FD0004FF0FF3000F050F87560204670BD00BF04
:104FE000100100200C01002010B5032000F030F863
:104FF0000F20FFF7D5FF10B10124204610BD044655
:10500000FFF7CCFF204610BD034A04491368096826
:105010000B441360704700BFF437002010010020DC
:10502000014B1868704700BFF437002038B50446BC
:10503000FFF7F6FF631C054602D0044B1B681C44B7
:10504000FFF7EEFF431BA342FAD338BD1001002047
:105050000849CA6810B400024FF6FF04224000F469
:10506000E063134343F0BF6343F400335DF8044B44
:10507000CB60704700ED00E0194BDB68C3F30223FF
:1050800030B4C3F10705042D03F1040428BF04253F
:10509000062C19D9033B4FF0FF349C4022EA04024E
:1050A0004FF0FF34AC4021EA04019940002841EA66
:1050B00002010CDB00F1604000F561400901C9B25A
:1050C00080F8001330BC704700221346E8E7054B18
:1050D00000F00F0009010344C9B2197630BC7047D3
:1050E00000ED00E0FCEC00E0002807DB00F01F0111
:1050F000034A400901238B4042F82030704700BF2B
:1051000000E100E00138B0F1807F0ED2084B10B40E
:10511000084C5860F02084F8230000220721104634
:105120009A605DF8044B196070470120704700BF1A
:1051300010E000E000ED00E02DE9F04F0E6883B0D4
:10514000002E00F09580DFF80CE2002301229A4047
:1051500012EA060C00F087804D6825F0100A0AF16B
:10516000FF34012C4FEA43084FF0030440F28380E0
:10517000C7688A6804FA08F427EA040702FA08F202
:105180003A43C260E743026805F00304174004FA9B
:1051900008F43C430460EC0065D5664C226E42F096
:1051A00001022266246E23F0030202F1804204F021
:1051B000010402F58032019403F00304019FD2F848
:1051C00008804FEA84090F2707FA09F7B0F1904FDA
:1051D00028EA070720D0584CA04200F08C80574C9A
:1051E000A04200F08E80564CA0427ED0554CA0428A
:1051F00000F09380544CA04200F09580534CA042A4
:1052000000F08580524CA0420CBF4FF007084FF0D1
:10521000080808FA09F427439760DEF800406FEAAF
:105220000C07EA0354BF3C404CEA0404CEF80040AB
:10523000DEF80440AA0354BF3C404CEA0404CEF814
:105240000440DEF80840EA0254BF3C404CEA040443
:10525000CEF80840DEF80C20AC0254BF3A404CEACD
:105260000202CEF80C20013336FA03F27FF46EAF5F
:1052700003B0BDE8F08F8768D1F8089004FA08F40D
:1052800027EA040BCF6807FA08F747EA0B0787609D
:105290004768C5F3001B27EA02075A469A403A437B
:1052A0004260C26809FA08F922EA040249EA0202E5
:1052B000BAF1020F6FEA0407C2607FF464AF4FEAED
:1052C000D30900EB890903F00704D9F82020A400D2
:1052D0004FF00F0B0BFA04FB22EA0B0A0A69A240FB
:1052E00042EA0A02C9F820204DE74FF0030808FA05
:1052F00009F4274390E74FF0010808FA09F427431F
:105300008AE74FF0020808FA09F4274384E74FF0D0
:10531000060808FA09F427437EE74FF0040808FA64
:1053200009F4274378E74FF0050808FA09F4274302
:1053300072E700BF00100240000400480008004867
:10534000000C0048001000480014004800180048F5
:10535000001C004800040140002900F0A2802DE953
:10536000F04FDFF854E1DFF85491DFF854A183B037
:1053700000234FF0010808FA03F414EA01066DD087
:1053800023F0030505F1804505F5803503F00302A0
:10539000AF6892004FF00F0C0CFA02FC0CEA070702
:1053A000B0F1904F019719D048455ED050455FD07D
:1053B0003C4FB84266D03C4FB84268D03B4FB842F1
:1053C0005BD03B4FB84267D03A4FB84214BF4FF062
:1053D000080B4FF0070B0BFA02F200E00022019FCE
:1053E00097421BD1DEF8002022EA0602CEF8002008
:1053F000DEF8042022EA0602CEF80420DEF80820B7
:1054000022EA0602CEF80820DEF80C2022EA060680
:10541000CEF80C60AA6822EA0C02AA6002685D005D
:105420000326AE40DD08324300EB8505026003F041
:1054300007022F6A92004FF00F0C0CFA02F227EAD3
:1054400002022A62826822EA06028260426822EA36
:1054500004044460C26822EA0606C660013331FAD9
:1054600003F288D103B0BDE8F08F08FA02F2B6E784
:105470004FF0020B0BFA02F2B1E74FF0050B0BFAFB
:1054800002F2ACE74FF0030B0BFA02F2A7E74FF082
:10549000040B0BFA02F2A2E74FF0060B0BFA02F232
:1054A0009DE77047000C00480010004800140048B9
:1054B00000180048001C0048000401400004004897
:1054C000000800480369194214BF012000207047FA
:1054D0000AB1816170478162704700BF044A516917
:1054E000014200D1704708B5506109F035F808BD98
:1054F0000004014070B504460D4616466A1C236838
:105500002CD19A69900727D49A69D106F9D59A695E
:105510009106FCD510212022D961DA619A699007A1
:1055200044BF00229A629A69D10703D49A6942F073
:1055300001029A615A6818490A405A60636C202136
:1055400043F004030022636484F8402084F841108F
:1055500084F84220012070BD002070BD9A69920736
:10556000FAD49A69D00612D4FFF75AFD801BA842DC
:1055700001D8002DC2D1636C20210B43E2E7FFF775
:105580004FFD801B8542F6D3002DF4D02368996926
:105590008A06F4D5BEE700BF00E800FE70B50446F9
:1055A00016460D4629B93DE0FFF73AFD801B8542BE
:1055B00041D323689969880641D49969C906F3D50E
:1055C000681C24D19A699106FCD510212022D9614A
:1055D000DA619A69900744BF00229A629A69D107FA
:1055E00003D49A6942F001029A615A6815490A4047
:1055F0005A60636C202143F004030022636484F842
:10560000402084F8411084F84220012070BD9A693E
:105610009206DAD4FFF704FD801B85420BD355B107
:105620002368CDE703689A69920608D49A69D2067E
:10563000C6D4FFF7F5FC636C20210B43DDE70020A7
:1056400070BD00BF00E800FE704700BF00284FD0CB
:1056500070B590F84130044603F0FF02002B42D0B1
:105660002368E068242284F841201968626821F0E8
:10567000010122F0706219601A619A68012822F40F
:1056800000429A60A2682AD042F4044202289A603A
:1056900004BF4FF400625A605968A569D4E9042632
:1056A00041F0007141F4004159603243D868E1692A
:1056B00042EA0522256A20F400402943D860DA60D6
:1056C00019601968002241F0010120251960626407
:1056D00084F84150226384F84220104670BD42F4A1
:1056E00000429A60D8E780F84020FFF7ADFFB7E7A7
:1056F00001207047704700BFB0B10268242310B585
:1057000080F84130136823F0010304461360FFF76B
:10571000F1FF0023636484F8403084F84130236350
:1057200084F84230184610BD012070472DE9F0473B
:10573000044690F84100BDF824A00A9F202840F0BC
:10574000A6809946089B002B00F09B80BAF1000FC1
:1057500000F0978094F84030012B00F098800123EE
:1057600084F840300D469046FFF75AFC064605E0A7
:10577000FFF756FC801B192800F28C8021688B698A
:1057800013F40043F4D12120402284F8410084F82E
:1057900042206364A4F82AA04868DFF8E4C1089AAC
:1057A00062620CEA00025FFA89F042EA0040C5F347
:1057B0000905284340F0014040F40050636332463D
:1057C000486039462046FFF795FE002840F0948057
:1057D000B9F1010F40F0848021685FFA88F28A6293
:1057E000781C65D18B691A06FCD5638D9BB2FF2BA3
:1057F0006AD8628D60484B6892B203402B43D0B2A6
:1058000043EA004343F0007322854B60DFF8688170
:10581000DFF870A14FF0FF0904E0638D9BB2002B0D
:1058200000F08B80324639462046FFF763FE0028A1
:1058300040F08180616A226811F8013B9362638DB8
:105840006162013B9BB26385238D618D013B9BB2FD
:1058500089B223850029E0D0002BDED1781C50D1FD
:1058600093691906FCD5638D9BB2FF2B55D95368FC
:10587000A4F8289003EA08032B4343EA0A03536081
:10588000CBE74FF4007363640120BDE8F08702208A
:10589000BDE8F087636C202100220B43636484F829
:1058A000402084F8411084F842200120BDE8F087B0
:1058B0008B691B0699D4FFF7B3FB801B874251D33A
:1058C000002F4FD021688BE74B682B4A13402B43A6
:1058D00043F0FF7343F48033FF2222854B6095E74A
:1058E00023684FEA18229A62394632462046FFF76B
:1058F00001FE00283FF470AF002384F840300120FF
:10590000C3E793691B06AED4FFF78AFB801B87426F
:10591000C0D3002FBED02268A0E7618D536889B242
:1059200003EA08032B43C8B243EA004343F0007381
:105930002185536071E70120A7E7324639462046AA
:10594000FFF72CFE0028F6D123680C4D2021D961E9
:105950005A682A405A6084F8411084F8400084F85C
:10596000420092E7636C20210B430022636484F8B9
:10597000411084F84220BFE7009C00FC00E800FED4
:10598000009800FC0000FF012DE9F047044690F864
:105990004100BDF824A00A9D202840F0A980994626
:1059A000089B002B00F09E80BAF1000F00F09A8057
:1059B00094F84030012B00F09B80012384F84030A4
:1059C0000E469046FFF72CFB074604E0FFF728FB46
:1059D000C01B192878D821688B6913F40043F5D1CE
:1059E0002220402284F8410084F842206364A4F815
:1059F0002AA04868DFF8E0C1089A62620CEA000257
:105A00005FFA89F042EA0040C6F30906304340F0ED
:105A1000004040F4005063633A46486029462046FF
:105A2000FFF768FD002840F0BC80B9F1010F236842
:105A300040F095805FFA88F29A62681C5BD19A699F
:105A40005106FCD5628D92B2FF2A7ED8618D6248E4
:105A50005A6889B202403243C8B242EA004242F078
:105A6000024242F4105221855A60681CDFF87481AA
:105A7000DFF874A14FF0FF091CD19A695107FCD5DA
:105A8000626A5B6A1370618D238D626A013989B223
:105A90006185618D013B9BB2013289B223856262CF
:105AA00009B1002B3DD0638D9BB2002B7ED0681CCA
:105AB0002368E2D09A695207E2D4FFF7B1FAC01B1B
:105AC000854201D3002DF2D1636C202100220B43CB
:105AD000636484F8402084F8411084F84220012057
